:020000040800F2
:10000000A0070020CD010008310B00084F060008B2
:10001000D50A000815030008FB13000800000000C3
:10002000000000000000000000000000750D000846
:100030001903000800000000A50B0008890E000845
:10004000E7010008E7010008E7010008E7010008F0
:10005000E7010008E7010008E7010008E7010008E0
:10006000E7010008E7010008E7010008E7010008D0
:10007000E7010008E7010008E7010008E7010008C0
:10008000E7010008E7010008E7010008E7010008B0
:10009000E7010008E7010008E70100081D03000868
:1000A000E7010008E7010008E7010008E701000890
:1000B000BD0F000849100008E7010008E70100082B
:1000C000E7010008E7010008E7010008E701000870
:1000D000E7010008D9110008E7010008E70100085E
:1000E000E7010008E7010008E7010008E701000850
:1000F000E7010008E7010008E7010008E701000840
:10010000E7010008E7010008E7010008E70100082F
:10011000E7010008E7010008E7010008E70100081F
:10012000E7010008E7010008E7010008E70100080F
:1001300000F002F800F03AF80AA090E8000C8244BF
:100140008344AAF10107DA4501D100F02FF8AFF29C
:10015000090EBAE80F0013F0010F18BFFB1A43F0A5
:1001600001031847C0140000E0140000103A24BF37
:1001700078C878C1FAD8520724BF30C830C144BF0C
:1001800004680C607047000000230024002500264E
:10019000103A28BF78C1FBD8520728BF30C148BFEA
:1001A0000B6070471FB51FBD10B510BD00F06EF895
:1001B0001146FFF7F7FF01F0B1F900F0A0F803B422
:1001C000FFF7F2FF03BC01F01AF90000094880476D
:1001D00009480047FEE7FEE7FEE7FEE7FEE7FEE729
:1001E000FEE7FEE7FEE7FEE704480549054A064B41
:1001F000704700008D0E000831010008A0010020AA
:10020000A0070020A0030020A003002070470000EA
:100210000FB4044910B503AA029800F009F810BC05
:100220005DF814FB1C000020704770477047704752
:10023000074B70B50D467B4400F011F80446284684
:1002400000F020F810B14FF0FF3070BD204670BDB7
:10025000A712000001694A1C02610878704700B5C6
:100260008FB0CDE901310021059105497944CDE9EF
:1002700003101146684600F02EF80FB000BD0000D4
:10028000E5FFFFFF007B00F080007047754600F03F
:100290003DF8AE4605006946534620F00700854606
:1002A00018B020B5FFF7A0FFBDE820404FF00006D2
:1002B0004FF000074FF000084FF0000B21F007014E
:1002C000AC46ACE8C009ACE8C009ACE8C009ACE891
:1002D000C0098D4670472DE9F04106460024D6E955
:1002E0000170F5688046304603E04146B847641C1B
:1002F0003046A8470028F8D12046BDE8F0810446E2
:10030000AFF300802046FFF75AFF00000048704717
:100310003C01002000BFFEE77047000010B58020C0
:1003200000F08AF840B10A2001F08EF812A0FFF721
:100330006FFF802000F07AF84FF4807000F07CF8B6
:1003400048B10A2001F080F80DA0FFF761FF4FF4DB
:10035000807000F06BF84FF4007000F06DF850B151
:100360000948007920F00200801C074908714FF409
:10037000007000F05BF810BD45585449370A000082
:1003800045585449380A0000480000200EB500F0D6
:100390006BF90121084600F017FC0721022000F04C
:1003A000A9F88020019000208DF808000C208DF81D
:1003B000090001208DF80A0001A800F051F8082179
:1003C000022000F097F84FF48070019000208DF823
:1003D00008000C208DF8090001208DF80A0001A802
:1003E00000F03EF80921022000F084F84FF400707C
:1003F000019000208DF808000C208DF809000120E4
:100400008DF80A0001A800F02BF817208DF80000E5
:1004100002208DF8010003208DF8020001208DF8E4
:100420000300684600F086FB0EBD0000014908602D
:100430007047000014040140014600200022074BD1
:100440001B6803EA0102054B14331B680B4013B110
:100450000AB1012000E000207047000000040140C4
:10046000002123498279002A3AD00A46126803689B
:100470009A430B461A600A1D126803689A430B1DC3
:100480001A60027911440A6803681A430A60184A1C
:100490000832126803689A43154B08331A601A1D14
:1004A000126803689A43124B0C331A604279102A7F
:1004B0000ED11A1F126803681A430D4B08331A60D5
:1004C0001A1D126803681A43094B0C331A600DE0B9
:1004D0000749427911440A6803681A430A6005E033
:1004E000027911440A6803689A430A607047000061
:1004F0000004014030B500228B071C0F0F2303FAC4
:1005000004F20B4B8C1053F824309343084C8D109D
:1005100044F8253023468C1053F824308C07240FE0
:1005200000FA04F42343024C8D1044F8253030BD0A
:10053000080001402DE9F041024600250026002078
:1005400000230024002791F803C00CF00F0591F858
:1005500003C00CF0100CBCF1000F03D091F802C0E6
:100560004CEA050591F800C0BCF1000F31D01468C9
:1005700000202BE04FF0010C0CFA00F3B1F800C0A2
:100580000CEA03069E4220D183004FF00F0C0CFAB8
:1005900003F7BC4305FA03FC4CEA040491F803C0DA
:1005A000BCF1280F06D14FF0010C0CFA00FCC2F888
:1005B00014C00AE091F803C0BCF1480F05D14FF018
:1005C000010C0CFA00FCC2F810C0401C0828D1D362
:1005D0001460B1F800C0BCF1FF0F34DD5468002096
:1005E0002EE000F1080C4FF0010808FA0CF3B1F806
:1005F00000C00CEA03069E4221D183004FF00F0C8D
:100600000CFA03F7BC4305FA03FC4CEA040491F826
:1006100003C0BCF1280F05D100F1080C08FA0CF852
:10062000C2F8148091F803C0BCF1480F07D100F163
:10063000080C4FF0010808FA0CF8C2F81080401CB2
:100640000828CED35460BDE8F0810161704700BF37
:10065000FEE7000001200349886000204860062072
:10066000086070473800002008B50121142000F010
:10067000ABFA4FF48070ADF8000003208DF8020053
:1006800048208DF8030069460E48FFF753FF4FF4EA
:100690000070ADF8000003208DF8020048208DF8AE
:1006A000030069460748FFF745FF4FF48070ADF837
:1006B000000048208DF8030069460348FFF73AFF21
:1006C00008BD0000001001400008014008B50121EC
:1006D000202000F079FA0420ADF8000010208DF8F9
:1006E000030003208DF8020069460448FFF722FF4B
:1006F00004210248FFF7A9FF08BD000000140140D3
:1007000010B5002004494876087688708876012064
:1007100000F050F910BD0000560000200A49897E03
:10072000491C094A917611464A7E497E491C064B6E
:100730005976191D8854091F497E142902DB0021AE
:100740001A46517670470000560000202DE9F0410E
:1007500004464FF47A7094FBF0F00A2190FBF1F21A
:1007600001FB120000F0FF08642094FBF0F090FB06
:10077000F1F201FB1200C6B20A2094FBF0F090FBEC
:10078000F1F201FB1200C7B20A2094FBF0F100FB6A
:100790001140C5B20A2C03DA284600F074F870E064
:1007A0000A2C03D10A2000F06EF86AE0132C08DC52
:1007B0000A2000F068F8002D63D0284600F063F8A6
:1007C0005FE0632C0BDC384600F05DF80A2000F097
:1007D0005AF8002D55D0284600F055F851E0B4F5F0
:1007E0007A7F1CDA304600F04EF8642000F04BF8B7
:1007F000642094FBF0F100FB1140002841D0384602
:1008000000F041F83FB10A2000F03DF88DB32846D2
:1008100000F039F835E0284600F035F831E042F2D2
:100820000F7084422DDC404600F02DF84FF47A70B2
:1008300000F029F84FF47A7094FBF0F100FB1140BE
:10084000B8B1304600F01FF816B1642000F01BF874
:10085000642094FBF0F100FB114050B157B13846D1
:1008600000F011F80A2000F00EF815B1284600F04B
:100870000AF806E016B1384600F005F8284600F000
:1008800002F8BDE8F08110B50446062C2ED005DC38
:1008900048D2DFE804F013171B1F23270A2C35D09A
:1008A00006DC072C26D0082C28D0092C3AD129E0C8
:1008B000642C2FD0B4F57A7F34D12FE00020FFF7DD
:1008C0002DFF2FE00120FFF729FF2BE00220FFF78B
:1008D00025FF27E00320FFF721FF23E00420FFF797
:1008E0001DFF1FE00520FFF719FF1BE00620FFF7A3
:1008F00015FF17E00720FFF711FF13E00820FFF7AF
:100900000DFF0FE00920FFF709FF0BE00A20FFF7BA
:1009100005FF07E00B20FFF701FF03E00C20FFF7C6
:10092000FDFE00BF00BF10BD002003494876C87619
:1009300008768870887670475600002008B5012137
:10094000182000F041F94FF48040ADF8000003207A
:100950008DF8020004208DF8030069461448FFF763
:10096000E9FD4FF40040ADF8000003208DF80200CF
:1009700010208DF8030069460D48FFF7DBFD4FF4AA
:100980004050ADF8000003208DF8020010208DF8D3
:10099000030069460648FFF7CDFD4FF400510448B7
:1009A000FFF753FE4FF480510148FFF74EFE08BD9C
:1009B000000C014010B504464FF6E071214488B2A6
:1009C00000F004F8C82000F03FFD10BD70B50546EA
:1009D00028123C4908703C490D7000203B490860D2
:1009E00041F2883000F056FD002428E035480078B8
:1009F00000F0010070B10120344908604FF4167016
:100A000000F048FD00203249C1F8BC01C82000F0C8
:100A100041FD0DE001202D490860C82000F03AFD9D
:100A200000202B49C1F8BC014FF4167000F032FDD4
:100A300024480078401023490870601CC4B2082C78
:100A4000D4DB0120214908604FF4FA6000F022FD58
:100A500000201F49C1F8BC0141F2883000F01AFDA6
:100A6000002428E01848007800F0010070B101204F
:100A7000164908604FF4167000F00CFD0020144970
:100A8000C1F8BC01C82000F005FD0DE001200F49B0
:100A90000860C82000F0FEFC00200D49C1F8BC0130
:100AA0004FF4167000F0F6FC074800784010064935
:100AB0000870601CC4B2082CD4DB01200349086014
:100AC00070BD00001500002014000020BC812142F0
:100AD0000080214200BFFEE710B51348807E10B3AE
:100AE00012480068012802D10F48007810B10E4862
:100AF000C07EC0B100200C49C8760846807E401EEA
:100B000088760A7E091D885CFFF760FF0648007E34
:100B1000401CC0B204490876142801D10020087690
:100B200002200149087010BD560000203881214282
:100B30007047000070B5002100230F22C47804B371
:100B4000154C246804F4E064C4F5E064210AC1F1A2
:100B50000403CA40447804FA03F184781440214322
:100B600009010E4C0678A155047804F01F050124F4
:100B7000AC4005786D11AD0005F1E025C5F80041E8
:100B800009E0047804F01F050124AC40044D067808
:100B9000761145F8264070BD0CED00E000E400E061
:100BA00080E100E07047000029B1064AD2690243A3
:100BB000044BDA6104E0034AD2698243014BDA61F3
:100BC000704700000010024029B1064A92690243B2
:100BD000044B9A6104E0034A92698243014B9A6193
:100BE000704700000010024030B5002100220024B0
:100BF00000232D4D6D6805F00C0121B1042905D0AD
:100C0000082923D105E0294D056022E0284D056023
:100C10001FE0254D6D6805F47012234D6D6805F4D5
:100C20008034022505EB92421CB9224D55430560E4
:100C30000BE01D4D6D6805F400351DB11B4D55438E
:100C4000056002E01A4D5543056002E0174D05604E
:100C500000BF00BF144D6D6805F0F0010909164D85
:100C60006B5C0568DD4045600F4D6D6805F4E06123
:100C7000090A114D6B5C4568DD4085600A4D6D6861
:100C800005F46051C90A0C4D6B5C4568DD40C560D8
:100C9000054D6D6805F44041890B084D6B5CC568D6
:100CA000B5FBF3F5056130BD0010024000127A007B
:100CB0000024F40000093D00220000203200002042
:100CC00000B51C480079C0F3400030B319480079E2
:100CD00020F00200174908710846C07AA0B9032025
:100CE000C87208464088401C48800846007900F0D9
:100CF000010048B9002000F009FC0E48007920F0FE
:100D00000100401C0B4908710A484088112190FBE2
:100D1000F1F008490880322008810648008940B96E
:100D20000448007920F0010002490871062000F013
:100D3000EDFB00BD480000200C48C07A20B10B48F4
:100D4000C07A401E0949C8720848008920B1074886
:100D50000089401E054908810548007820B10448F3
:100D60000078401E024908707047000048000020CB
:100D700056000020704710B500F002F810BD0000CA
:100D80000CB50020019000903348006840F480309A
:100D90003149086000BF3048006800F4003000901E
:100DA0000198401C0190009818B90198B0F5A06F07
:100DB000F1D12948006800F4003010B10120009002
:100DC00001E0002000900098012843D123480068EA
:100DD00040F01000214908600846006820F0030038
:100DE00008600846006840F0020008601A48406841
:100DF000194948600846406848600846406840F421
:100E0000806048600846406820F47C1048600846CE
:100E1000406840F4F81048600846006840F0807070
:100E2000086000BF0C48006800F000700028F9D08E
:100E30000948406820F003000749486008464068B8
:100E400040F00200486000BF0348406800F00C001A
:100E50000828F9D10CBD000000100240002002401B
:100E6000042808D14FF0E021096941F004014FF056
:100E7000E022116107E04FF0E021096921F004014F
:100E80004FF0E022116170477047000010B5134821
:100E9000006840F0010011490860084640681049A8
:100EA00008400E494860084600680E4908400B4952
:100EB00008600846006820F4802008600846406802
:100EC00020F4FE0048604FF41F008860FFF753FFD6
:100ED0004FF000600449086010BD0000001002409F
:100EE0000000FFF8FFFFF6FE08ED00E010B5304807
:100EF000406800285AD12E480068072855D2DFE8FC
:100F000000F054040B15222C33001E20FFF706FCC2
:100F10001E202749486048E01820FFF7FFFB1D20EE
:100F2000FFF7FCFB3220224948603EE01920FFF722
:100F3000F5FB1A20FFF7F2FB1E20FFF7EFFB1E2048
:100F40001B49486031E01B20FFF7E8FB1D20FFF73D
:100F5000E5FB1E201649486027E01C20FFF7DEFB5A
:100F60001E201349486020E012484088E0B1FFF796
:100F7000DBFC01201049C8761220FFF7CFFB0D499A
:100F80004888FFF7E3FB0F20FFF7C8FB1520FFF7AA
:100F9000C5FB08490888FFF7D9FB1620FFF7BEFB01
:100FA000002004494880088000BF00BF10BD000039
:100FB00038000020480000205600002010B5012114
:100FC000880700F09CF858B106480068C0430649FD
:100FD000C1F88801FFF7B0FE0121880700F080F812
:100FE00010BD000088812242008022427FB5054664
:100FF0000C4601210846FFF7D7FDADF80850ADF8C3
:1010000004400020ADF80A00ADF8060001A94FF039
:10101000804000F08FF801221146900700F080F820
:101020001C208DF8000000208DF8010003208DF8B1
:10103000020001208DF803006846FFF77BFD0121C7
:10104000880700F050F87FBD10B501210A4800F074
:1010500056F880B10948406820B108484068401EF1
:10106000064948600548406808B900F07FFA012148
:10107000014800F035F810BD0004004038000020A1
:101080007FB505460C4601210220FFF78DFDADF826
:101090000850ADF804400020ADF80A00ADF8060095
:1010A00001A90E4800F046F8012211460B4800F055
:1010B00037F81D208DF8000000208DF80100032076
:1010C0008DF8020001208DF803006846FFF732FD1D
:1010D0000121024800F007F87FBD00000004004035
:1010E000CA430282704721B1028842F001020280A5
:1010F00004E002884FF6FE731A400280704730B554
:101100000246002000230024158A05EA0103958980
:1011100005EA010413B10CB1012000E0002030BD4C
:101120001AB183890B43838102E083898B438381D6
:1011300070470000002202881D4B98420ED01D4BC4
:1011400098420BD0B0F1804F08D01B4B984205D08D
:101150001A4B984202D01A4B984204D14FF68F7323
:101160001A404B881A43174B984207D0164B9842A7
:1011700004D04FF6FF431A40CB881A4302808B8875
:1011800083850B8803850A4B98420BD0094B984204
:1011900008D00E4B984205D00D4B984202D00D4B13
:1011A000984201D10B7A03860123838270470000A5
:1011B000002C0140003401400004004000080040C1
:1011C000000C0040001000400014004000400140AE
:1011D000004401400048014010B540F225511D482F
:1011E00000F04AF810B31B4800F002F9C4B21A48E4
:1011F000008800F40040C8B91748008800F4804017
:1012000060B10A2C03D000201349088020E0124866
:10121000008840F400401049088019E00D2C06D1E8
:101220000D48008840F480400B49088010E00A48CF
:101230000088C0F30D0009490C5407480088401C81
:101240000549088008460088C72801DD002008807D
:1012500010BD000000380140200000207300002075
:1012600021B1828942F40052828104E082894DF6E4
:10127000FF731A408281704770B502460024002334
:101280000025002040F66A16B14200D100BFC1F32C
:10129000421501F01F03012606FA03F3012D02D1C6
:1012A0009689334006E0022D02D1168A334001E0D0
:1012B000968A33400C12012606FA04F4168834404C
:1012C00013B10CB1012000E0002070BDF0B5034661
:1012D000002400260025002040F66A17B94200D1FC
:1012E00000BF1846C1F3421401F01F06012707FA98
:1012F00006F5012C01D10C3004E0022C01D1103094
:1013000000E014301AB107682F43076002E0076855
:10131000AF430760F0BD00002DE9F04786B00546F9
:101320000E460024A24600BFA1460027B08900B1A6
:1013300000BF2F462C8A4CF6FF700440F08804430F
:101340002C82AC894EF6F3100440B08831890843F2
:10135000718908430443AC81AC8A4FF6FF400440D6
:10136000B0890443AC8201A8FFF73EFC1F488742C6
:1013700002D1DDF810A001E0DDF80CA0A88900F48E
:10138000004040B10AEBCA0000EB0A103168490086
:10139000B0FBF1F807E00AEBCA0000EB0A10316875
:1013A0008900B0FBF1F86420B8FBF0F004012009DB
:1013B000642101FB1089A88900F4004040B132206B
:1013C00000EBC900B0FBF1F000F00700044308E0B7
:1013D000322000EB09106421B0FBF1F000F00F00A7
:1013E00004432C8106B0BDE8F087000000380140BE
:1013F00001468888C0F30800704700BFFEE7014639
:1014000000BF704710B56FF00400FFF729FD0A48D0
:1014100000680A49B0FBF1F00949087008460078F5
:1014200000EB4001C1EBC0104FF6FF7101EAC000B4
:101430000449088010BD00000000002000127A005E
:1014400016000020180000200146114A12884A4365
:101450004FF0E0235A6100229A611A46126942F065
:1014600001021A6100BF4FF0E022106900F0010292
:101470001AB100F48032002AF5D04FF0E022126950
:1014800022F001024FF0E0231A6100229A617047B6
:10149000180000200146114A12784A434FF0E02319
:1014A0005A6100229A611A46126942F001021A61D9
:1014B00000BF4FF0E022106900F001021AB100F401
:1014C0008032002AF5D04FF0E022126922F00102AA
:1014D0004FF0E0231A6100229A6170471600002045
:1014E00000BF054A128802F04002002AF9D0C2B2B9
:1014F000014B1B1D1A8070470038014010B5FFF7E3
:10150000EBFAFFF7F3FCFFF7DBFB10BD02490860C5
:101510000021014A5160704738000020FFF7B6FCF7
:10152000FFF770FFFFF7D2F8FFF79EF8FEF72EFFE8
:10153000FFF704FA4FF4165000F024F841F61F416B
:1015400042F20F70FFF79CFD41F61F4140F2E73079
:10155000FFF74CFDFFF7D4F8FFF77CF81120FFF7F9
:10156000DDF801E0FFF7CAFFFCE70000044800686F
:10157000052804DC02480068401C014908607047E7
:101580003800002010B586B00446012144F2040062
:10159000FFF71AFB4FF40070ADF8140003208DF82C
:1015A000160018208DF8170005A91C48FEF7C2FF89
:1015B0004FF48060ADF8140004208DF8170005A9E1
:1015C0001648FEF7B7FF25208DF8000003208DF8A0
:1015D00001008DF8020001208DF803006846FFF736
:1015E000A9FA01940020ADF80800ADF80A00ADF8A2
:1015F0000C00ADF810000C20ADF80E0001A9084851
:10160000FFF78AFE012240F225510548FFF75EFEF2
:1016100001210348FFF724FE06B010BD0008014079
:101620000038014044160008000000203800000087
:101630006C0100087C1600083800002068070000D4
:101640008801000800A24A04000000000000000019
:101650000102030406070809000000000000000062
:10166000000000000000000000000102030401026D
:0C16700003040607080902040608000035
:04000005080001CD21
:00000001FF
